:0200030008A44F
:0200050009F6FA
:0200070009628C
:020009000A12D9
:03000B000203727B
:10036A00C2AF80FE120A313212036E85D00B75D0ED
:10037A0008AAE0C28CE58A241FF58AE58C34FCF5CC
:10038A008CD28CEC2418F8E6BC030274FFC3958166
:10039A00B4140040CB7904780F16E608700BC2AF8C
:1003AA00E630E1034418F6D2AF08D9EDEA8BD03033
:1003BA00090122D50DFCC0E0C0D0C0F0C083C082C4
:1003CA00C000C001C002C003C004C005C006C00707
:1003DA00E50C232410F87440C2AF46F6D2AFD20916
:1003EA00E50CFF232410F80F0808BF04047F0078E7
:1003FA0010E630E4F200E50CC39F5020050C741798
:10040A00250CF8E6FDA68108E6AE0CBE030274FFD1
:10041A00CDF8E86D60E008E6C0E080F6E50CD39F11
:10042A004027E50C2418F8E6AE0CBE030274FFFD63
:10043A0018E6CDF8E5816D6006D0E0F61880F5E59E
:10044A000C2417C8F6150C80D3750D05E50C23246A
:10045A0010F87F04C2AFE610E61E30E00310E20C8B
:05046A007F0030E107F6
:10046F0030E3047F0854F4547CC6D2AF5480420763
:10047F00C20922F6D2AFD007D006D005D004D003E0
:10048F00D002D001D000D082D083D0F0D0D0D0E035
:10049F00C209227817A68174036006FF0876FFDF72
:1004AF00FB7F04E4780FF608F608DFFA7810763051
:1004BF00900003740193C0E0E493C0E0750D054311
:1004CF008901758A18758CFCD28CD2AFD2A9220300
:0409CE0041000500DF
:1008D9001205689000011205C0EDF41205AE9000F2
:1008E90001120581FF120568FE6F60012290000464
:1008F9001205816E5E9000021205C0900004EE128E
:0309090005C02204
:1006E600E4900008F0A3F0120A34900005E0FEC37F
:1006F600EF9EC394145003020796120A3490000525
:10070600EFF0A2B0E433900009F0900008E0FFA3F8
:10071600E0FEEF4EFF900008F0E4A3F0E025E04F86
:10072600FF900008F0E4A3F0E025E025E04FFF90FD
:100736000008F0E4A3F0E033333354F84FFF9000A1
:1007460008F0E4A3F0E0C454F04FFF900008F0E492
:10075600A3F0E0C43354E04FFF900008F0E4A3F0A8
:10076600E0C4333354C04FFF900008F0E4A3F0E038
:10077600FEC433333354804FFF900008F0FD7B01F5
:100786007A0079001208D9900002E030E002B291B6
:010796002240
:010A3A002299
:0E09F60043AC0153ADFE1206E6120A3A80F839
:0809D20041000600410007008E
:10093F00120A34900006E0FEC3EF9EC39464401287
:10094F00120A34900006EFF0A3E0D394004003E0C6
:03095F0014F0226F
:0A0A1F00900007E07003740AF02253
:1009620053B3FD43B40253B3FB43B40453B3F7434D
:10097200B40853B3EF43B41012093F120A1F80F8B0
:100982005B5359535D0053797374656D20696E69C9
:0C099200742066696E6973682E0D0A00FF
:0709DA00010E0041000A00BC
:030A3100050E228D
:030A3400AF0E22E0
:10099E0075C7AA75C755A2AF920AC2AF75C7AA7519
:0A09AE00C755439F80A20A92AF22B2
:10090C0075C7AA75C75543AA07A2AF920AC2AF759D
:10091C00C7AA75C75543AA80A20A92AFA2AF920A82
:10092C00C2AF75C7AA75C75543AA40A20A92AF4376
:03093C009B1022EB
:1009E200A2AF920AC2AF75C7AA75C75543AA40A261
:0409F2000A92AF2294
:0E0A0400E4F5B1F5B2F5B3F5B4F5ACF5AD22FD
:10082300C2AFA2AF920AC2AF75C7AA75C7554397A5
:1008330020A20A92AFE59630E5FBA2AF920AC2AFBF
:1008430075C7AA75C7555396FBA20A92AFA2AF927A
:100853000AC2AF75C7AA75C7555396FDA20A92AFD0
:08086300E59720E0FBD2AF2273
:1009B800120A3490000AE0FEC3EF9EC39464400517
:0609C800120A34EFF022D8
:030A37000209E2CF
:1008A400120823120A0412090C1209E27F0112042D
:1008B400DF7F021204DF7F031204DF7BFF7A0979F2
:1008C400821200707BFF7A0979881200701209B8CD
:0508D400120A3780F854
:080A29003099FDC2998F99225A
:10086B0053B1BF53B2BF53B17F53B27F759850434F
:10087B008920438780438E1053C4DFAB07AA06A998
:10088B0005A8047F407E427D0F7C0012061EEF04FC
:09089B00F404F58DD28ED29922ED
:0D0A12007F007EC27D017C0012086B80FE1B
:1004DF00EFD3940340037FFF2274102F2FF8E620F1
:1004EF00E5F4C2AFE64430F6D2AFAE0CEEC39F5088
:1004FF00210E74172EF8E6F908E618BE030274FFF2
:10050F00FDED69600909E71919F7090980F3161656
:10051F0080DAEED39F400405810581EED39F402200
:10052F0074172EF808E6F9EEB50C02A98118060625
:10053F00E6FDED6960091919E70909F71980F31E3E
:10054F0080D9EF2417F8E604F8EF2F0490000393F7
:09055F00F608EF2F93F67F00224D
:030000000207975D
:0C079700787FE4F6D8FD7581350207DE9E
:10056800BB010689828A83E0225002E722BBFE0291
:09057800E32289828A83E49322C4
:10058100BB010CE58229F582E5833AF583E022502F
:1005910006E92582F8E622BBFE06E92582F8E22279
:0D05A100E58229F582E5833AF583E4932293
:1005AE00BB010689828A83F0225002F722BBFE012C
:0205BE00F32226
:1005C000F8BB010DE58229F582E5833AF583E8F071
:1005D000225006E92582C8F622BBFE05E92582C81D
:0205E000F22205
:1005E20075F008758200EF2FFFEE33FECD33CDCCD0
:1005F20033CCC58233C5829BED9AEC99E582984053
:100602000CF582EE9BFEED9AFDEC99FC0FD5F0D62F
:10061200E4CEFBE4CDFAE4CCF9A88222B800C1B959
:100622000059BA002DEC8BF084CFCECDFCE5F0CB97
:10063200F97818EF2FFFEE33FEED33FDEC33FCEBD0
:1006420033FB10D703994004EB99FB0FD8E5E4F98B
:10065200FA227818EF2FFFEE33FEED33FDEC33FC78
:10066200C933C910D7059BE99A4007EC9BFCE99A6C
:10067200F90FD8E0E4C9FAE4CCFB2275F010EF2FB1
:10068200FFEE33FEED33FDCC33CCC833C810D707B1
:100692009BEC9AE899400AED9BFDEC9AFCE899F8EC
:0E06A2000FD5F0DAE4CDFBE4CCFAE4C8F9227F
:10000E00E5312425F8E605312278223007027825DD
:10001E00E475F0011206B00205682000EB7F2ED2C7
:10002E00008018EF540F2490D43440D4FF30040BCA
:10003E00EF24BFB41A0050032461FFE532600215AD
:10004E00320535E5357002053430070D7822E4753A
:10005E00F0011206B0EF0205AE020A297403D207B0
:10006E008003E4C207F5318B228A238924E4F5321A
:10007E00F534F535E53260077F2012004980F575BD
:10008E0033FFC201C200C202C203C205C206C208C9
:10009E00120017FF700D3007057F0012005AAF35A2
:1000AE00AE3422B4255FC2D5C204120017FF24D08D
:1000BE00B40A00501A75F00A783230D50508B6FF2A
:1000CE000106C6A426F620D5047002D20380D924D8
:1000DE00CFB41A00EF5004C2E5D20402025AD20184
:1000EE0080C6D20080C0D20280BCD2D580BAD205E2
:1000FE0080B47F201200492002077401B5320040FF
:10010E00F112000EFF120049020082D208D20680C0
:10011E009512000EFB12000EFA12000EF94A4B70E9
:10012E0006792B7A037BFF20022EE532602A7E00B1
:10013E008E8275830012058160060EEE653370F0B7
:10014E00C2D5EBC0E0EAC0E0E9C0E0EE1202A1D0F9
:10015E00E0F9D0E0FAD0E0FB120568FF60AAEBC030
:10016E00E0EAC0E0E9C0E0120049D0E02401F9D095
:10017E00E03400FAD0E0FBE5330460DCD533D980FF
:10018E00877BFF7A02799DD202809C79108002795A
:10019E0008C206C2088008D2D5790A8004790AC23C
:1001AE00D5E533047002F533E4FAFDFEFF12000EBE
:1001BE00FC7B0820011312000EFD7B1030000A128A
:1001CE00000EFE12000EFF7B20EC3382D592D5502E
:1001DE0013C3E43000069FFFE49EFEE42001039D5E
:1001EE00FDE49CFCE4CBF8C201EC700CCFCECDCC80
:1001FE00E824F8F870F38017C3EF33FFEE33FEED0B
:10020E0033FDEC33FCEB33FB994002FB0FD8E9EBEB
:10021E00300105F8D0E0C448B201C0E00AEC4D4E02
:10022E004F78207B0070C2EAB5330040BCC0E012AC
:10023E0002A3D0F0D0E0200104C4C0E0C4B201C0DB
:10024E00F0120032D0F0D5F0EB0200821206C0019F
:10025E001F5301995800F04C00EC42019D4F01A52F
:0F026E004401A54901054301AB55018F46018F9E
:10027D0045018F47034B5000F42D00F82E011B2B29
:10028D0000FC2301192003342A00B4480000011397
:10029D003F3F3F00790AA2D5200314300509B9105C
:1002AD00020404B9080104A2D5200602500104205D
:1002BD0002689202B532005034C0E07F203003193D
:1002CD007F30A20272067205500F1202FAC202C2EC
:1002DD0006C205C2087F30800F300503E9C0E01269
:1002ED000049300503D0E0F9D0E0B532CC30051728
:1002FD007F30B9100C1200497F583004077F788089
:10030D0003B908031200493002057F2D0200497F11
:10031D00202008F87F2B2006F322920280CF286E32
:10032D00756C6C2900D20112000E3001F8C20178F3
:10033D003230D50108F60200B42D50434958120051
:10034D000E2403B405004001E49003469312003AD5
:0D035D00743A12003AD2037532040201997D
:1007A3000204A2E493A3F8E493A34003F68001F2C6
:1007B30008DFF48029E493A3F85407240CC8C33357
:1007C300C4540F4420C8834004F456800146F6DF26
:1007D300E4800B01020408102040809009CEE47EDF
:1007E300019360BCA3FF543F30E509541FFEE4931B
:1007F300A360010ECF54C025E060A840B8E493A3E2
:10080300FAE493A3F8E493A3C8C582C8CAC583CA0C
:10081300F0A3C8C582C8CAC583CADFE9DEE780BEC4
:0109E1000015
:1006B000FAE6FB0808E6F925F0F618E6CA3AF6224B
:1006C000D083D082F8E4937012740193700DA3A3C9
:1006D00093F8740193F5828883E4737402936860DD
:0606E000EFA3A3A380DFDD
:00000001FF
