:020FC4000EEB32
:020FC6000F908A
:020FC8000F1305
:020FCA000FAC6A
:020FCC000E25F0
:03000B0002060CDE
:10060400C2AF80FE120FDD3212060885D00B75D002
:1006140008AAE0C28CE58A241FF58AE58C34FCF52F
:100624008CD28CEC2437F8E6BC040274FFC39581A9
:10063400B4140040CB7905781216E608700BC2AFEB
:10064400E630E1034418F6D2AF08D9EDEA8BD03096
:10065400090122D50DFCC0E0C0D0C0F0C083C08227
:10066400C000C001C002C003C004C005C006C0076A
:10067400E50C232413F87440C2AF46F6D2AFD20976
:10068400E50CFF232413F80F0808BF05047F007846
:1006940013E630E4F200E50CC39F5020050C7436D9
:1006A400250CF8E6FDA68108E6AE0CBE040274FF34
:1006B400CDF8E86D60E008E6C0E080F6E50CD39F75
:1006C4004027E50C2437F8E6AE0CBE040274FFFDA7
:1006D40018E6CDF8E5816D6006D0E0F61880F5E502
:1006E4000C2436C8F6150C80D3750D05E50C2324AF
:1006F40013F87F04C2AFE610E61E30E00310E20CEC
:050704007F0030E10759
:1007090030E3047F0854F4547CC6D2AF54804207C6
:10071900C20922F6D2AFD007D006D005D004D00343
:10072900D002D001D000D082D083D0F0D0D0D0E098
:10073900C209227836A68174046006FF0876FFDFB5
:10074900FB7F05E47812F608F608DFFA78137630AD
:10075900900FC4740193C0E0E493C0E0750D0543A4
:100769008901758A18758CFCD28CD2AFD2A9220462
:020EC3008D257B
:100EC500E4F52690000212039BFFED2401FDE433B7
:100ED500FCC3ED9F7480F86C9840047F008004E5A6
:050EE5002504FF8F262B
:010EEA0022E5
:0800030090000312039BFF2291
:060CB0008B228A23892437
:100CB600E4900091F0A3F090000312039BD39400FC
:100CC600403790000112039BFD900092F0120EC374
:100CD600AB22AA23A924900001EF12040D90000371
:100CE60074FF1203C89000041204FD900092E0F510
:100CF6008275830012039B8001E4900091F09000BE
:030D060091E0FF7A
:010D090022C7
:100BF4008B228A238924AF0590000212039BFE9066
:100C0400000312039BC39E50469000041204FDC0CF
:100C140003C002C001AB22AA23A924120382FDD07F
:100C240001D002D003F582758300EF12040DAB22CC
:100C3400AA23A924120EC3AB22AA23A924EF1203C8
:100C4400FBAB22AA23A92490000374011203C82237
:100DA2008B228A238924EA494B6036900002ED1295
:100DB200040DE41203FBAB22AA23A9249000011222
:100DC200040D900003E412040DAB26AA27A928C043
:100DD20003C002C001AB22AA23A924900004120579
:020DE2002D22C0
:04000E004100980015
:100E5D0012038290000112040DEDF41203FB9000B9
:100E6D000112039BFF120382FE6F600122900004AA
:100E7D0012039B6E5E90000212040D900004EE12A0
:030E8D00040D222F
:1009C300E490008BF0A3F0120FE0900098E0FEC3D8
:1009D300EF9EC394145003020A78120FE09000981C
:1009E300EFF0A2B0E43390008CF090008BE0FFA313
:1009F300E0FEEF4EFF90008BF0E4A3F0E025E04F24
:100A0300FF90008BF0E4A3F0E025E025E04FFF909A
:100A1300008BF0E4A3F0E033333354F84FFF90003E
:100A23008BF0E4A3F0E0C454F04FFF90008BF0E4AC
:100A3300A3F0E0C43354E04FFF90008BF0E4A3F045
:100A4300E0C4333354C04FFF90008BF0E4A3F0E0D5
:100A5300FEC433333354804FFF90008BF0FD7B0192
:100A63007A007993120E5D900095E030E0077D02E5
:050A7300E4FF120C5429
:010A7800225B
:010FE60022E8
:0E0F900043AC0153ADFE1209C3120FE680F808
:040012004100990010
:100C5400EF14601E14602F1460402403704DED7077
:100C640003C29122BD0103D29122ED6402703CB211
:100C74009122ED7003C29222BD0103D29222ED644F
:100C8400027028B29222ED7003C29322BD0103D2F6
:100C94009322ED64027014B29322ED7003C2942285
:0C0CA400BD0103D29422BD0202B29422D2
:100F4D00120FE0900099E0FEC3EF9EC39464400839
:090F5D00120FE0900099EFF02260
:010FE70022E7
:100F130053B3FD43B40253B3FB43B40453B3F74396
:100F2300B40853B3EF43B410120F4D120FE780F818
:0700160001110041009A00F6
:030FDD00051122D9
:030FE000AF11222C
:100F330075C7AA75C755A2AF920AC2AF75C7AA757E
:0A0F4300C755439F80A20A92AF2217
:100E900075C7AA75C75543AA07A2AF920AC2AF7514
:100EA000C7AA75C75543AA80A20A92AFA2AF920AF9
:100EB000C2AF75C7AA75C75543AA40A20A92AF43ED
:030EC0009B102262
:100F7C00A2AF920AC2AF75C7AA75C75543AA40A2C1
:040F8C000A92AF22F4
:0E0F9E00E4F5B1F5B2F5B3F5B4F5ACF5AD225E
:100D5A00C2AFA2AF920AC2AF75C7AA75C755439769
:100D6A0020A20A92AFE59630E5FBA2AF920AC2AF83
:100D7A0075C7AA75C7555396FBA20A92AFA2AF923E
:100D8A000AC2AF75C7AA75C7555396FDA20A92AF94
:080D9A00E59720E0FBD2AF2237
:100F6600120FE090009AE0FEC3EF9EC39464400522
:060F7600120FE0EFF02273
:030FE300020F7C7E
:100EEB00120D5A120F9E120E90120F7C7F011207D9
:100EFB00797F021207797F031207797F0412077932
:080F0B00120F66120FE380F8DB
:05001D00030E000000CD
:080FCE003099FDC2998F9922B0
:100DE400C2AF53B1BF53B2BF53B17F53B27F7598F3
:100DF40050438920438780438E1053C4DFAB07AA36
:100E040006A905A8047F407E427D0F7C0012046B76
:100E1400EF04F404F58DC2ABD28ED299D2ACD2AF2A
:010E240022AB
:03002300020D0AC1
:100D0A00C0E0C0F0C083C082C0D075D000C000C0AF
:0D0D1A0001C002C003C004C005C006C00730
:100D2700309815C298AF99E50F4510450E600985B3
:080D37001082850F8312058A6A
:100D3F00D007D006D005D004D003D002D001D00008
:0B0D4F00D0D0D082D083D0F0D0E032B2
:070FD6008B0E8A0F89102227
:0D0FAC007F007EC27D017C00120DE480FEFE
:100902003F48454C50002D2D4C6973747320616C27
:100912006C207573657220636F6D6D616E64730018
:100922003F5245534554002D2D5265736574207313
:10093200797374656D003F54494D45002D2D536800
:100942006F77207468652073797374656D2074699C
:100952006D65000D0A2F2A2D2D2D2D2D2D2D2D2DBE
:100962002D2D2D2D2D2D2D2D2D2D2D2D2D2D2043AC
:100972006D64204C697374202D2D2D2D2D2D2D2D60
:100982002D2D2D2D2D2D2D2D2D2D2D2D2D2D2D2D95
:100992002D2A2F0D0A005B2562755D20202025730C
:1009A2000925730D0A00FF0902FF0908FF0B87FFE3
:1009B2000922FF0929FF0FE9FF0938FF093EFF0F4E
:0109C200EA4A
:0B0FB900AD077B017A007984020BF485
:010FE80022E6
:10080200E490008DF0A3F0A3F0A3F07B017A0079CD
:100812008412000390008DEFF07003020901900032
:100822008DE0FF14F0EF70030209017B017A007979
:1008320084120CB090008FEFF090008EE0146031C3
:100842000470DB90008FE0FFB43FD3E4900000F02F
:10085200A3E0FBA3E0FAA3E0F9900000E0FE04F0BD
:100862008E82758300EF12040D90008E7401F08069
:10087200AD90008FE0640A7063A3F0900090E0FFF7
:10088200C394035057EF75F009A424A8F582E43409
:1008920009F583E493FB740193FA7402938B258A1E
:1008A20026F527900001E0FBA3E0FAA3E0F9120B82
:1008B20005EA494B601E900090E075F009A424AE51
:1008C200F582E43409F583740193FA740293F91200
:1008D20005868008900090E004F0809F90008FE0F1
:1008E200FF900001E0FBA3E0FAA3E0F9900000E032
:0F08F200FE04F08E82758300EF12040D020820C1
:0109010022D3
:100E25007526017527007528047B017A0079847D74
:100E350040120DA2E4900000F0A304F0A37400F0AA
:100E4500A37444F07BFF7A0F79B9120FD6120FE81D
:080E550012080212068280F56A
:100B8700E4900091F07BFF7A097955120088E49090
:100B97000091F0900091E0FFC39403504F8F25EF31
:100BA70075F009A424A8F582E43409F583E493FBDE
:100BB700740193FA7402938B268A27F528EF75F050
:100BC70009A424ABF582E43409F583E493FB7401AB
:100BD70093FA7402938B298A2AF52B7BFF7A09797A
:0C0BE70098120088900091E004F080A7B4
:010BF30022DF
:010FE90022E5
:010FEA0022E4
:10077900EFD3940440037FFF2274132F2FF8E62050
:10078900E5F4C2AFE64430F6D2AFAE0CEEC39F50EB
:10079900210E74362EF8E6F908E618BE040274FF35
:1007A900FDED69600909E71919F7090980F31616BA
:1007B90080DAEED39F400405810581EED39F402264
:1007C90074362EF808E6F9EEB50C02A9811806066A
:1007D900E6FDED6960091919E70909F71980F31EA2
:1007E90080D9EF2436F8E604F8EF2F04900FC4936C
:0907F900F608EF2F93F67F0022B1
:03000000020A7978
:0C0A7900787FE4F6D8FD75813A020AC0CF
:10038200BB010689828A83E0225002E722BBFE0279
:09039200E32289828A83E49322AC
:10039B00BB010CE58229F582E5833AF583E0225017
:1003AB0006E92582F8E622BBFE06E92582F8E22261
:0D03BB00E58229F582E5833AF583E493227B
:1003C800BB010FF8E58229F582E5833AF583E02839
:1003D800F0225009C58229F8E58226F622BBFE09DB
:1003E800C58229F8E22582F222F8EA2583F583E915
:0303F80093282225
:1003FB00BB010689828A83F0225002F722BBFE01E1
:02040B00F322DA
:10040D00F8BB010DE58229F582E5833AF583E8F025
:10041D00225006E92582C8F622BBFE05E92582C8D1
:02042D00F222B9
:10042F0075F008758200EF2FFFEE33FECD33CDCC84
:10043F0033CCC58233C5829BED9AEC99E582984007
:10044F000CF582EE9BFEED9AFDEC99FC0FD5F0D6E4
:10045F00E4CEFBE4CDFAE4CCF9A88222B800C1B90E
:10046F000059BA002DEC8BF084CFCECDFCE5F0CB4C
:10047F00F97818EF2FFFEE33FEED33FDEC33FCEB85
:10048F0033FB10D703994004EB99FB0FD8E5E4F940
:10049F00FA227818EF2FFFEE33FEED33FDEC33FC2D
:1004AF00C933C910D7059BE99A4007EC9BFCE99A21
:1004BF00F90FD8E0E4C9FAE4CCFB2275F010EF2F66
:1004CF00FFEE33FEED33FDCC33CCC833C810D70766
:1004DF009BEC9AE899400AED9BFDEC9AFCE899F8A1
:0E04EF000FD5F0DAE4CDFBE4CCFAE4C8F92234
:1004FD00BB010DE58229F582E5833AF5830205AE50
:10050D005007E92582F802058CBBFE07E92582F824
:10051D000205C0E58229F582E5833AF5830205D20D
:10052D00BB0120E58229F582E5833AF583D0F0D031
:10053D00E0F8D0E0F9D0E0FAD0E0FBE8C0E0C0F0A0
:10054D000205B75018E92582F8D083D082D0E0F9A2
:10055D00D0E0FAD0E0FBC082C0830205A5BBFE1837
:10056D00E92582F8D083D082D0E0F9D0E0FAD0E04E
:09057D00FBC082C0830205C92203
:060586008A838982E47300
:10002600E5312425F8E605312278223007027825C5
:10003600E475F0011205950203822000EB7F2ED2B3
:10004600008018EF540F2490D43440D4FF30040BB2
:10005600EF24BFB41A0050032461FFE53260021595
:10006600320535E5357002053430070D7822E47522
:10007600F001120595EF0203FB020FCE7403D207BF
:100086008003E4C207F5318B228A238924E4F53202
:10009600F534F535E53260077F2012006180F5758D
:1000A60033FFC201C200C202C203C205C206C208B1
:1000B60012002FFF700D3007057F00120072AF355A
:1000C600AE3422B4255FC2D5C20412002FFF24D05D
:1000D600B40A00501A75F00A783230D50508B6FF12
:1000E6000106C6A426F620D5047002D20380D924C0
:1000F600CFB41A00EF5004C2E5D204020272D20154
:1001060080C6D20080C0D20280BCD2D580BAD205C9
:1001160080B47F201200612002077401B5320040CE
:10012600F1120026FF12006102009AD208D2068060
:1001360095120026FB120026FA120026F94A4B7089
:100146000679437A037BFF20022EE532602A7E0081
:100156008E8275830012039B60060EEE653370F087
:10016600C2D5EBC0E0EAC0E0E9C0E0EE1202B9D0C9
:10017600E0F9D0E0FAD0E0FB120382FF60AAEBC000
:10018600E0EAC0E0E9C0E0120061D0E02401F9D065
:10019600E03400FAD0E0FBE5330460DCD533D980E7
:1001A600877BFF7A0279B5D202809C79108002792A
:1001B60008C206C2088008D2D5790A8004790AC224
:1001C600D5E533047002F533E4FAFDFEFF1200268E
:1001D600FC7B08200113120026FD7B1030000A125A
:1001E6000026FE120026FF7B20EC3382D592D550E6
:1001F60013C3E43000069FFFE49EFEE42001039D46
:10020600FDE49CFCE4CBF8C201EC700CCFCECDCC67
:10021600E824F8F870F38017C3EF33FFEE33FEEDF2
:1002260033FDEC33FCEB33FB994002FB0FD8E9EBD3
:10023600300105F8D0E0C448B201C0E00AEC4D4EEA
:100246004F78207B0070C2EAB5330040BCC0E01294
:1002560002BBD0F0D0E0200104C4C0E0C4B201C0AB
:10026600F012004AD0F0D5F0EB02009A1205DE013A
:10027600375301B15801084C01044201B54F01BD85
:0F0286004401BD49011D4301C35501A74601A70E
:100295004501A747036350010C2D01102E01332B97
:1002A500011423013120034C2A00CC480000012B06
:1002B5003F3F3F00790AA2D5200314300509B91044
:1002C500020404B9080104A2D52006025001042045
:1002D50002689202B532005034C0E07F2030031925
:1002E5007F30A20272067205500F120312C202C2BB
:1002F50006C205C2087F30800F300503E9C0E01251
:100305000061300503D0E0F9D0E0B532CC300517F7
:100315007F30B9100C1200617F583004077F788058
:1003250003B908031200613002057F2D0200617FC9
:10033500202008F87F2B2006F322920280CF286E1A
:10034500756C6C2900D2011200263001F8C20178C3
:100355003230D50108F60200CC2D50434958120021
:10036500262403B405004001E490035E9312005275
:0D037500743A120052D2037532040201B135
:100B05008B228A238924AB25AA26A9271203826072
:100B150063AB22AA23A924120382605F8525288559
:100B2500262985272A8B2B8A2C892DAB28AA29A92A
:100B35002A120382FF6023AB2BAA2CA92D12038254
:100B45006F701704252AF52AE43529F5297401253E
:100B55002DF52DE4352CF52C80D1AB28AA29A92A11
:100B65001203827002800D74012524F524E43523D7
:100B7500F523809DAB22AA23A924227B007A007944
:020B850000224C
:100A850002073CE493A3F8E493A34003F68001F244
:100A950008DFF48029E493A3F85407240CC8C33372
:100AA500C4540F4420C8834004F456800146F6DF41
:100AB500E4800B010204081020408090000EE47EC3
:100AC500019360BCA3FF543F30E509541FFEE49336
:100AD500A360010ECF54C025E060A840B8E493A3FD
:100AE500FAE493A3F8E493A3C8C582C8CAC583CA28
:100AF500F0A3C8C582C8CAC583CADFE9DEE780BEE0
:0100220000DD
:09058C00E6FB08E6FA08E6F92294
:10059500FAE6FB0808E6F925F0F618E6CA3AF62267
:0905A500EBF608EAF608E9F6227B
:0905AE00E0FBA3E0FAA3E0F9224E
:0905B700EBF0A3EAF0A3E9F02245
:0905C000E2FB08E2FA08E2F9226C
:0905C900EBF208EAF208E9F22263
:0C05D200E493FB740193FA740293F92285
:1005DE00D083D082F8E4937012740193700DA3A3AC
:1005EE0093F8740193F5828883E4737402936860C0
:0605FE00EFA3A3A380DFC0
:00000001FF
