:020F75000E6804
:020F77000F3B2E
:020F79000EBBAD
:020F7B000F4C19
:020F7D000DCA9B
:03000B0002060CDE
:10060400C2AF80FE120F8E3212060885D00B75D051
:1006140008AAE0C28CE58A241FF58AE58C34FCF52F
:100624008CD28CEC241CF8E6BC040274FFC39581C4
:10063400B4140040CB7905781116E608700BC2AFEC
:10064400E630E1034418F6D2AF08D9EDEA8BD022A4
:10065400E50CFF232412F80F0808BF05047F007877
:1006640012E630E4F200E50CC39F5020050C741B25
:10067400250CF8E6FDA68108E6AE0CBE040274FF64
:10068400CDF8E86D60E008E6C0E080F6E50CD39FA5
:100694004027E50C241CF8E6AE0CBE040274FFFDF2
:1006A40018E6CDF8E5816D6006D0E0F61880F5E532
:1006B4000C241BC8F6150C80D3E50C232412F87FF8
:1006C40004C2AFE630E00310E20C7F0030E10730F3
:1006D400E3047F0854F4547CC6D2AF54804207220A
:1006E400781BA68174046006FF0876FFDFFB7F0594
:0D06F400E47811F608F608DFFA7812763087
:10070100900F75740193C0E0E493C0E043890175D3
:0D0711008A18758CFCD28CD2AFD2A92204BC
:020E93008D25AB
:100E9500E4F52690000212039BFFED2401FDE433E7
:100EA500FCC3ED9F7480F86C9840047F008004E5D6
:050EB5002504FF8F265B
:010EBA002215
:0800030090000312039BFF2291
:060C55008B228A23892492
:100C5B00E4900091F0A3F090000312039BD3940057
:100C6B00403790000112039BFD900092F0120E93FF
:100C7B00AB22AA23A924900001EF12040D900003CC
:100C8B0074FF1203C89000041204FD900092E0F56B
:100C9B008275830012039B8001E4900091F0900019
:030CAB0091E0FFD6
:010CAE002223
:100B99008B228A238924AF0590000212039BFE90C1
:100BA900000312039BC39E50469000041204FDC02B
:100BB90003C002C001AB22AA23A924120382FDD0DB
:100BC90001D002D003F582758300EF12040DAB2228
:100BD900AA23A924120E93AB22AA23A924EF120354
:100BE900FBAB22AA23A92490000374011203C82293
:100D47008B228A238924EA494B6036900002ED12F0
:100D5700040DE41203FBAB22AA23A924900001127D
:100D6700040D900003E412040DAB26AA27A928C09E
:100D770003C002C001AB22AA23A9249000041205D4
:020D87002D221B
:04000E004100980015
:100E020012038290000112040DEDF41203FB900014
:100E12000112039BFF120382FE6F60012290000405
:100E220012039B6E5E90000212040D900004EE12FB
:030E3200040D228A
:10096800E490008BF0A3F0120F91900098E0FEC382
:10097800EF9EC394145003020A1D120F9190009821
:10098800EFF0A2B0E43390008CF090008BE0FFA36E
:10099800E0FEEF4EFF90008BF0E4A3F0E025E04F7F
:1009A800FF90008BF0E4A3F0E025E025E04FFF90F6
:1009B800008BF0E4A3F0E033333354F84FFF90009A
:1009C8008BF0E4A3F0E0C454F04FFF90008BF0E408
:1009D800A3F0E0C43354E04FFF90008BF0E4A3F0A1
:1009E800E0C4333354C04FFF90008BF0E4A3F0E031
:1009F800FEC433333354804FFF90008BF0FD7B01EE
:100A08007A007993120E02900095E030E0077D029B
:050A1800E4FF120BF9E0
:010A1D0022B6
:010F97002237
:100F3B0043AC0153ADFE120968120F971206548091
:010F4B00F5B0
:040012004100990010
:100BF900EF14601E14602F1460402403704DED70D3
:100C090003C29122BD0103D29122ED6402703CB26C
:100C19009122ED7003C29222BD0103D29222ED64AA
:100C2900027028B29222ED7003C29322BD0103D251
:100C39009322ED64027014B29322ED7003C29422E0
:0C0C4900BD0103D29422BD0202B294222D
:100EF800120F91900099E0FEC3EF9EC394644008DE
:090F0800120F91900099EFF02204
:010F98002236
:100EBB0053B3FD43B40253B3FB43B40453B3F743EF
:100ECB00B40853B3EF43B410120EF8120F98120676
:030EDB005480F54B
:0700160001100041009A00F7
:030F8E0005102229
:030F9100AF10227C
:100EDE0075C7AA75C755A2AF9209C2AF75C7AA75D5
:0A0EEE00C755439F80A20992AF226E
:100E350075C7AA75C75543AA07A2AF9209C2AF7570
:100E4500C7AA75C75543AA80A20992AFA2AF920956
:100E5500C2AF75C7AA75C75543AA40A20992AF4349
:030E65009B1022BD
:100F2700A2AF9209C2AF75C7AA75C75543AA40A217
:040F37000992AF224A
:0E0F5C00E4F5B1F5B2F5B3F5B4F5ACF5AD22A0
:100CFF00C2AFA2AF9209C2AF75C7AA75C7554397C6
:100D0F0020A20992AFE59630E5FBA2AF9209C2AFE0
:100D1F0075C7AA75C7555396FBA20992AFA2AF929A
:100D2F0009C2AF75C7AA75C7555396FDA20992AFF1
:080D3F00E59720E0FBD2AF2292
:100F1100120F9190009AE0FEC3EF9EC394644005C6
:060F2100120F91EFF02217
:030F9400020F2722
:100E6800120CFF120F5C120E35120F277F011207AA
:100E78001E7F0212071E7F0312071E7F0412071E21
:0B0E8800120F11120F9412065480F597
:05001D00030D000000CE
:080F7F003099FDC2998F9922FF
:100D8900C2AF53B1BF53B2BF53B17F53B27F75984E
:100D990050438920438780438E1053C4DFAB07AA91
:100DA90006A905A8047F407E427D0F7C0012046BD2
:100DB900EF04F404F58DC2ABD28ED299D2ACD2AF86
:010DC9002207
:03002300020CAF1D
:100CAF00C0E0C0F0C083C082C0D075D000C000C00B
:0D0CBF0001C002C003C004C005C006C0078C
:100CCC00309815C298AF99E50E450F450D60098512
:080CDC000F82850E8312058AC8
:100CE400D007D006D005D004D003D002D001D00064
:0B0CF400D0D0D082D083D0F0D0E0320E
:070F87008B0D8A0E890F2279
:100F4C007F007EC27D017C00120D8912065480FB4D
:1008A7003F48454C50002D2D4C6973747320616C83
:1008B7006C207573657220636F6D6D616E64730074
:1008C7003F5245534554002D2D526573657420736F
:1008D700797374656D003F54494D45002D2D53685C
:1008E7006F77207468652073797374656D207469F8
:1008F7006D65000D0A2F2A2D2D2D2D2D2D2D2D2D1A
:100907002D2D2D2D2D2D2D2D2D2D2D2D2D2D204307
:100917006D64204C697374202D2D2D2D2D2D2D2DBB
:100927002D2D2D2D2D2D2D2D2D2D2D2D2D2D2D2DF0
:100937002D2A2F0D0A005B2562755D202020257367
:100947000925730D0A00FF08A7FF08ADFF0B2CFF51
:1009570008C7FF08CEFF0F9AFF08DDFF08E3FF0F68
:010967009BF4
:0B0F6A00AD077B017A007984020B992F
:010F99002235
:1007A700E490008DF0A3F0A3F0A3F07B017A007929
:1007B7008412000390008DEFF070030208A69000EA
:1007C7008DE0FF14F0EF70030208A67B017A007931
:1007D70084120C5590008FEFF090008EE01460317A
:1007E7000470DB90008FE0FFB43FD3E4900000F08B
:1007F700A3E0FBA3E0FAA3E0F9900000E0FE04F019
:100807008E82758300EF12040D90008E7401F080C4
:10081700AD90008FE0640A7063A3F0900090E0FF52
:10082700C394035057EF75F009A4244DF582E434BF
:1008370009F583E493FB740193FA7402938B258A79
:1008470026F527900001E0FBA3E0FAA3E0F9120ADE
:10085700AAEA494B601E900090E075F009A4245362
:10086700F582E43409F583740193FA740293F9125B
:1008770005868008900090E004F0809F90008FE04C
:10088700FF900001E0FBA3E0FAA3E0F9900000E08D
:0F089700FE04F08E82758300EF12040D0207C578
:0108A600222F
:100DCA007526017527007528047B017A0079847DD0
:100DDA0040120D47E4900000F0A304F0A37400F061
:100DEA00A37444F07BFF7A0F796A120F87120F9966
:080DFA001207A712065480F550
:100B2C00E4900091F07BFF7A0879FA120088E49047
:100B3C000091F0900091E0FFC39403504F8F25EF8C
:100B4C0075F009A4244DF582E43409F583E493FB94
:100B5C00740193FA7402938B268A27F528EF75F0AB
:100B6C0009A42450F582E43409F583E493FB740161
:100B7C0093FA7402938B298A2AF52B7BFF7A0979D5
:0C0B8C003D120088900091E004F080A76A
:010B9800223A
:010F9A002234
:010F9B002233
:10071E00EFD3940440037FFF2274122F2FF8E620AC
:10072E00E5F4C2AFE64430F6D2AFAE0CEEC39F5046
:10073E00210E741B2EF8E6F908E618BE040274FFAB
:10074E00FDED69600909E71919F7090980F3161615
:10075E0080DAEED39F400405810581EED39F4022BF
:10076E00741B2EF808E6F9EEB50C02A981180606E0
:10077E00E6FDED6960091919E70909F71980F31EFD
:10078E0080D9EF241BF8E604F8EF2F04900F759331
:09079E00F608EF2F93F67F00220C
:03000000020A1ED3
:0C0A1E00787FE4F6D8FD758135020A658A
:10038200BB010689828A83E0225002E722BBFE0279
:09039200E32289828A83E49322AC
:10039B00BB010CE58229F582E5833AF583E0225017
:1003AB0006E92582F8E622BBFE06E92582F8E22261
:0D03BB00E58229F582E5833AF583E493227B
:1003C800BB010FF8E58229F582E5833AF583E02839
:1003D800F0225009C58229F8E58226F622BBFE09DB
:1003E800C58229F8E22582F222F8EA2583F583E915
:0303F80093282225
:1003FB00BB010689828A83F0225002F722BBFE01E1
:02040B00F322DA
:10040D00F8BB010DE58229F582E5833AF583E8F025
:10041D00225006E92582C8F622BBFE05E92582C8D1
:02042D00F222B9
:10042F0075F008758200EF2FFFEE33FECD33CDCC84
:10043F0033CCC58233C5829BED9AEC99E582984007
:10044F000CF582EE9BFEED9AFDEC99FC0FD5F0D6E4
:10045F00E4CEFBE4CDFAE4CCF9A88222B800C1B90E
:10046F000059BA002DEC8BF084CFCECDFCE5F0CB4C
:10047F00F97818EF2FFFEE33FEED33FDEC33FCEB85
:10048F0033FB10D703994004EB99FB0FD8E5E4F940
:10049F00FA227818EF2FFFEE33FEED33FDEC33FC2D
:1004AF00C933C910D7059BE99A4007EC9BFCE99A21
:1004BF00F90FD8E0E4C9FAE4CCFB2275F010EF2F66
:1004CF00FFEE33FEED33FDCC33CCC833C810D70766
:1004DF009BEC9AE899400AED9BFDEC9AFCE899F8A1
:0E04EF000FD5F0DAE4CDFBE4CCFAE4C8F92234
:1004FD00BB010DE58229F582E5833AF5830205AE50
:10050D005007E92582F802058CBBFE07E92582F824
:10051D000205C0E58229F582E5833AF5830205D20D
:10052D00BB0120E58229F582E5833AF583D0F0D031
:10053D00E0F8D0E0F9D0E0FAD0E0FBE8C0E0C0F0A0
:10054D000205B75018E92582F8D083D082D0E0F9A2
:10055D00D0E0FAD0E0FBC082C0830205A5BBFE1837
:10056D00E92582F8D083D082D0E0F9D0E0FAD0E04E
:09057D00FBC082C0830205C92203
:060586008A838982E47300
:10002600E5312425F8E605312278223007027825C5
:10003600E475F0011205950203822000EB7F2ED2B3
:10004600008018EF540F2490D43440D4FF30040BB2
:10005600EF24BFB41A0050032461FFE53260021595
:10006600320535E5357002053430070D7822E47522
:10007600F001120595EF0203FB020F7F7403D2070E
:100086008003E4C207F5318B228A238924E4F53202
:10009600F534F535E53260077F2012006180F5758D
:1000A60033FFC201C200C202C203C205C206C208B1
:1000B60012002FFF700D3007057F00120072AF355A
:1000C600AE3422B4255FC2D5C20412002FFF24D05D
:1000D600B40A00501A75F00A783230D50508B6FF12
:1000E6000106C6A426F620D5047002D20380D924C0
:1000F600CFB41A00EF5004C2E5D204020272D20154
:1001060080C6D20080C0D20280BCD2D580BAD205C9
:1001160080B47F201200612002077401B5320040CE
:10012600F1120026FF12006102009AD208D2068060
:1001360095120026FB120026FA120026F94A4B7089
:100146000679437A037BFF20022EE532602A7E0081
:100156008E8275830012039B60060EEE653370F087
:10016600C2D5EBC0E0EAC0E0E9C0E0EE1202B9D0C9
:10017600E0F9D0E0FAD0E0FB120382FF60AAEBC000
:10018600E0EAC0E0E9C0E0120061D0E02401F9D065
:10019600E03400FAD0E0FBE5330460DCD533D980E7
:1001A600877BFF7A0279B5D202809C79108002792A
:1001B60008C206C2088008D2D5790A8004790AC224
:1001C600D5E533047002F533E4FAFDFEFF1200268E
:1001D600FC7B08200113120026FD7B1030000A125A
:1001E6000026FE120026FF7B20EC3382D592D550E6
:1001F60013C3E43000069FFFE49EFEE42001039D46
:10020600FDE49CFCE4CBF8C201EC700CCFCECDCC67
:10021600E824F8F870F38017C3EF33FFEE33FEEDF2
:1002260033FDEC33FCEB33FB994002FB0FD8E9EBD3
:10023600300105F8D0E0C448B201C0E00AEC4D4EEA
:100246004F78207B0070C2EAB5330040BCC0E01294
:1002560002BBD0F0D0E0200104C4C0E0C4B201C0AB
:10026600F012004AD0F0D5F0EB02009A1205DE013A
:10027600375301B15801084C01044201B54F01BD85
:0F0286004401BD49011D4301C35501A74601A70E
:100295004501A747036350010C2D01102E01332B97
:1002A500011423013120034C2A00CC480000012B06
:1002B5003F3F3F00790AA2D5200314300509B91044
:1002C500020404B9080104A2D52006025001042045
:1002D50002689202B532005034C0E07F2030031925
:1002E5007F30A20272067205500F120312C202C2BB
:1002F50006C205C2087F30800F300503E9C0E01251
:100305000061300503D0E0F9D0E0B532CC300517F7
:100315007F30B9100C1200617F583004077F788058
:1003250003B908031200613002057F2D0200617FC9
:10033500202008F87F2B2006F322920280CF286E1A
:10034500756C6C2900D2011200263001F8C20178C3
:100355003230D50108F60200CC2D50434958120021
:10036500262403B405004001E490035E9312005275
:0D037500743A120052D2037532040201B135
:100AAA008B228A238924AB25AA26A92712038260CE
:100ABA0063AB22AA23A924120382605F85252885B5
:100ACA00262985272A8B2B8A2C892DAB28AA29A986
:100ADA002A120382FF6023AB2BAA2CA92D120382B0
:100AEA006F701704252AF52AE43529F5297401259A
:100AFA002DF52DE4352CF52C80D1AB28AA29A92A6D
:100B0A001203827002800D74012524F524E4352332
:100B1A00F523809DAB22AA23A924227B007A00799F
:020B2A000022A7
:100A2A000206E4E493A3F8E493A34003F68001F2F8
:100A3A0008DFF48029E493A3F85407240CC8C333CD
:100A4A00C4540F4420C8834004F456800146F6DF9C
:100A5A00E4800B010204081020408090000EE47E1E
:100A6A00019360BCA3FF543F30E509541FFEE49391
:100A7A00A360010ECF54C025E060A840B8E493A358
:100A8A00FAE493A3F8E493A3C8C582C8CAC583CA83
:100A9A00F0A3C8C582C8CAC583CADFE9DEE780BE3B
:0100220000DD
:09058C00E6FB08E6FA08E6F92294
:10059500FAE6FB0808E6F925F0F618E6CA3AF62267
:0905A500EBF608EAF608E9F6227B
:0905AE00E0FBA3E0FAA3E0F9224E
:0905B700EBF0A3EAF0A3E9F02245
:0905C000E2FB08E2FA08E2F9226C
:0905C900EBF208EAF208E9F22263
:0C05D200E493FB740193FA740293F92285
:1005DE00D083D082F8E4937012740193700DA3A3AC
:1005EE0093F8740193F5828883E4737402936860C0
:0605FE00EFA3A3A380DFC0
:00000001FF
