:020003000321D7
:020005000330C6
:020007000335BF
:03000B00020016DA
:10000E00C2AF80FE12033E3212001285D00B75D0A5
:10001E0008AAE0C28CE58A2487F58AE58C34C1F5FE
:10002E008CD28CEC2416F8E6BC020274FFC39581C8
:10003E00B4140040CB7903780F16E608700BC2AFEC
:10004E00E630E1034418F6D2AF08D9EDEA8BD03092
:10005E00000122D50DFCC0E0C0D0C0F0C083C0822C
:10006E00C000C001C002C003C004C005C006C00766
:10007E00E50C232410F87440C2AF46F6D2AFD2007E
:10008E00E50CFF232410F80F0808BF03047F007847
:10009E0010E630E4F200E50CC39F5020050C7415F9
:1000AE00250CF8E6FDA68108E6AE0CBE020274FF32
:1000BE00CDF8E86D60E008E6C0E080F6E50CD39F71
:1000CE004027E50C2416F8E6AE0CBE020274FFFDC6
:1000DE0018E6CDF8E5816D6006D0E0F61880F5E5FE
:1000EE000C2415C8F6150C80D3750D05E50C2324CC
:1000FE0010F87F04C2AFE610E61E30E00310E20CEB
:05010E007F0030E10755
:1001130030E3047F0854F4547CC6D2AF54804207C2
:10012300C20022F6D2AFD007D006D005D004D00348
:10013300D002D001D000D082D083D0F0D0D0D0E094
:10014300C200227815A68174026006FF0876FFDFDD
:10015300FB7F03E4780FF608F608DFFA78107630B1
:10016300900003740193C0E0E493C0E0750D054370
:100173008901758A80758CC1D28CD2AFD2A9220233
:03033A00010E00B1
:03033E00050E2287
:03034100AF0E22DA
:0F0321007F011201837F02120183E4FF02020CAD
:0503300012008C80FBAF
:0503350012008C80FBAA
:10018300EFD3940240037FFF2274102F2FF8E62051
:10019300E5F4C2AFE64430F6D2AFAE0CEEC39F50E7
:1001A300210E74152EF8E6F908E618BE020274FF54
:1001B300FDED69600909E71919F7090980F31616B6
:1001C30080DAEED39F400405810581EED39F402260
:1001D30074152EF808E6F9EEB50C02A98118060687
:1001E300E6FDED6960091919E70909F71980F31E9E
:1001F30080D9EF2415F8E604F8EF2F049000039359
:09020300F608EF2F93F67F0022AC
:10020C00EFD3940240037FFF22EF232410F8E63053
:10021C00E5F4C2AFE6548CF6D2AFE50CB5070A7420
:10022C00152FF8E6F58102008C502E74162FF8E687
:10023C00BF020274FFFD18E6F974152FF8FBE6FCFB
:10024C00E96C6008A805E7F61D1980F4A803A6055B
:10025C001FE50CB507E37F002274162FF8E6FD1896
:10026C0086010F74152FF8A601088604E50CB50756
:10027C0002AC81ED6C60080D09A805E6F780F4E589
:09028C000CB507DE89817F002218
:0300000002029564
:0C029500787FE4F6D8FD7581200202DCC1
:1002A100020146E493A3F8E493A34003F68001F22C
:1002B10008DFF48029E493A3F85407240CC8C3335E
:1002C100C4540F4420C8834004F456800146F6DF2D
:1002D100E4800B010204081020408090033AE47E80
:1002E100019360BCA3FF543F30E509541FFEE49322
:1002F100A360010ECF54C025E060A840B8E493A3E9
:10030100FAE493A3F8E493A3C8C582C8CAC583CA13
:10031100F0A3C8C582C8CAC583CADFE9DEE780BECB
:01033D0000BF
:00000001FF
