:0215B700110A17
:0215B900156CAF
:0215BB00002608
:0215BD00158097
:101223009000301205ABC2AFA2AF9209C2AF75C72F
:10123300AA75C755439720A20992AFE59630E5FBFF
:10124300A2AF9209C2AF75C7AA75C7555396FBA241
:101253000992AFA2AF9209C2AF75C7AA75C755531A
:0E12630096FDA20992AFE59720E0FBD2AF22E4
:1014DB0075C7AA75C755A2AF920AC2AF75C7AA75D1
:0A14EB00C755439F80A20A92AF226A
:10153F00A2AF920AC2AF75C7AA75C75553A37FA2B0
:07154F000A92AF438702225C
:0E159400E4F5B1F5B2F5B3F5B4F5ACF5AD2262
:10108C00EF14602514603D1460552403706F7401D7
:10109C00A805088002C333D8FCF45280EBA80508DD
:1010AC008002C333D8FC4280227401A80508800258
:1010BC00C333D8FCF45290EBA805088002C333D894
:1010CC00FC4290227401A805088002C333D8FCF4BA
:1010DC0052A0EBA805088002C333D8FC42A02274AE
:1010EC0001A805088002C333D8FCF452B0AF05AE9A
:0E10FC0003EEA807088002C333D8FC42B022DE
:100EB800EF14603714605D147003020F452403605B
:100EC80003020F6C74017E00A805088005C333CEA9
:100ED80033CED8F9FFAB80E4FEEF5BA805088006A7
:100EE800CEA2E713CE13D8F8FC807974017E00A84F
:100EF80005088005C333CE33CED8F9FFAC90ECFBA0
:100F0800E4FEEF5BA805088006CEA2E713CE13D84F
:100F1800F8FC805074017E00A805088005C333CE14
:100F280033CED8F9FFACA0ECFBE4FEEF5BA80508D4
:100F38008006CEA2E713CE13D8F8FC802774017E72
:100F480000A805088005C333CE33CED8F9FFACB06E
:100F5800ECFBE4FEEF5BA805088006CEA2E713CE03
:060F680013D8F8FCAF04F1
:010F6E002260
:100CD900EF14606624FE7003020D9824036003027A
:100CE9000DECEB701004A805088002C333D8FCF49E
:100CF90052B152B222EBB401117401A80508800265
:100D0900C333D8FCFFF452B1802CEBB40213740145
:100D1900A805088002C333D8FCFF42B1EFF452B2F0
:100D290022EB64036003020DEC04A805088002C3EA
:100D390033D8FCFF42B1EF42B222EB701004A80590
:100D4900088002C333D8FCF452B352B422EBB40185
:100D5900117401A805088002C333D8FCFFF452B30B
:100D69008029EBB402137401A805088002C333D8A3
:100D7900FCFF42B3EFF452B422EB6403706504A89C
:100D890005088002C333D8FCFF42B3EF42B422EB1B
:100D9900701004A805088002C333D8FCF452AC5281
:100DA900AD22EBB401117401A805088002C333D840
:100DB900FCFFF452AC8029EBB402137401A80508B6
:100DC9008002C333D8FCFF42ACEFF452AD22EBB43E
:100DD90003117401A805088002C333D8FCFF42AC93
:040DE900EF42AD2206
:06138C0043008300000095
:0C15A200900083EBF0A3EAF0A3E9F02234
:080003003099FDC2998F99228A
:10134B00C2AF53B1BF53B2BF53B17F53B27F759886
:10135B0050438920438780438E1053C4DFAB07AAC9
:10136B0006A905A8047F407E427D0F7C001204C0B5
:10137B00EF04F404F58DC2ABD28ED299D2ACD2AFBE
:01138B00223F
:030023000211C700
:1011C700C0E0C0F0C083C082C0D075D000C000C0EE
:0D11D70001C002C003C004C005C006C0076F
:1011E400309821C298AF99900083E0FBA3E0FAA362
:1011F400E0F9EA494B600D900083A3A3E0F5828AED
:0412040083120675D6
:10120800D007D006D005D004D003D002D001D0003A
:0B121800D0D0D082D083D0F0D0E032E4
:1013F80075C7AA75C75543AA07A2AF920DC2AF75A4
:10140800C7AA75C75543AA80A20D92AFA2AF920D85
:10141800C2AF75C7AA75C75543AA40A20D92AF437C
:031428009B1022F4
:10000E00A2AF920DC2AF75C7AA75C75543AA40A23B
:04001E000D92AF226E
:030053000215276C
:10152700C0D0A2AF920DC2AF75C7AA75C75553AA4F
:08153700DFA20D92AFD0D0320B
:10092200E4900004F0A3F0A3F0A31205B7000000C6
:100932000090000B1205B700000000A2AF920EC299
:10094200AF75C7AA75C755439F01A20E92AF75AF87
:100952000475A60DE4F5A7A2AF920EC2AF75C7AAA1
:1009620075C75543A401A20E92AF900005E5AEF003
:10097200E0FF54F0A3F064806003020A0DEF540F0D
:10098200900005F075A60CE4F5A7A2AF920EC2AFD7
:1009920075C7AA75C75543A401A20E92AF90000471
:1009A200E5AEF0E075F010A4FFA3E07C002FFFECB1
:1009B20035F0FEE4FD9000071205ABE47F2C7E01CA
:1009C200FDFC900007E0F8A3E0F9A3E0FAA3E0FB46
:1009D200120435E47B04FAF9F81204C0E47B64FAE9
:1009E200F9F81204C090000B1205AB90000BE0FC6A
:1009F200A3E0FDA3E0FEA3E024DFFFEE34FFFEED63
:100A020034FFFDEC34FFFCA3020B11900006E070F2
:100A12006E900005E0540FF075A60CE4F5A7A2AFA6
:100A2200920EC2AF75C7AA75C75543A401A20E9212
:100A3200AF900004E5AEF0E075F010A4FFA3E07CF7
:100A4200002FFFEC35F0FEE4FD9000071205ABE449
:100A52007F2C7E01FDFC900007E0F8A3E0F9A3E003
:100A6200FAA3E0FB120435E47B04FAF9F81204C09D
:100A7200E47B64FAF9F81204C090000F020B1190A3
:100A82000006E064906003020B1475A60EF5A7A29F
:100A9200AF920EC2AF75C7AA75C75543A401A20E85
:100AA20092AF900004E5AEF075A60FE4F5A7A2AFF1
:100AB200920EC2AF75C7AA75C75543A401A20E9282
:100AC200AFA3E5AEF0E0540FF0FD900004E075F046
:100AD20010A47C002DFFEC35F0FEE4FD900007121F
:100AE20005ABE47F2C7E01FDFC900007E0F8A3E05B
:100AF200F9A3E0FAA3E0FB120435E47B04FAF9F867
:100B02001204C0E47B64FAF9F81204C090000F12D8
:100B120005ABA2AF920EC2AF75C7AA75C755539F58
:100B2200FEA20E92AF90000FE0FCA3E0FDA3E0FE58
:030B3200A3E0FF3E
:010B3500229D
:0206F600AB0750
:1006F800E4900008F0A3F0A3F0A31205B7000000EF
:100708000090000F1205B7000000009000131205BA
:10071800B7000000009000171205B7000000007530
:100728009502EBB4090040030207FC90073AF82849
:10073800287302075502076702077B02078F020723
:10074800A30207B70207CB0207DF0207F353E8F05B
:1007580043B38053B47FE4F5F643F6010207F95337
:10076800E8F043E80143AC0153ADFEE4F5F643F687
:1007780002807E53E8F043E80243B18053B27FE43D
:10078800F5F643F604806A53E8F043E80343B140C2
:1007980053B2BFE4F5F643F608805653E8F043E851
:1007A8000443B12053B2DFE4F5F643F61080425318
:1007B800E8F043E80543B11053B2EFE4F5F643F629
:1007C80020802E53E8F043E80643B10853B2F7E41B
:1007D800F5F643F640801A53E8F043E80743B302BE
:1007E80053B4FDE4F5F643F680800643E80853E881
:1007F800F843E101E4900008F0C2EFD2EE30EFFDDB
:10080800900008E0FF2438F582E43400F583E5C35E
:10081800F074462FF582E43400F583E5C2F09000C9
:1008280008E004F0E0B40ED1E4F59553E1FE900041
:100838000F1205B7000000009000131205B7000062
:1008480000009000087406F0900008E0FFC3940EC2
:1008580040030208F674382FF582E43400F583E08B
:10086800FFE4FCFDFE90000F1205AB90000FE0FCCA
:10087800A3E0FDA3E0FEA3E0FF7804120563900067
:100888000F1205AB90000FE0F8A3E0F9A3E0FAA37C
:10089800E0FB900008E02446F582E43400F583E0AC
:1008A800FFE4FCFDFEEB2FFFEE3AFEED39FDEC38E0
:1008B800FC90000F1205AB900017E0FCA3E0FDA32D
:1008C800E0FEA3E0FF90000FE0F8A3E0F9A3E0FA50
:1008D800A3E0FBEF2BFFEE3AFEED39FDEC38FC9080
:1008E80000171205AB900008E004F0020850E47B02
:1008F80008FAF9F8900017E0FCA3E0FDA3E0FEA3D6
:10090800E0FF1204C090000B1205AB90000BE0FC56
:09091800A3E0FDA3E0FEA3E0FF53
:0109210022B3
:1014A400EF14600D14600D14600E2403700DC2A9B6
:0C14B40022C2AB22539B7F22539CFD22DE
:1014C000EF14600D14600D14600D2403700CC28CB9
:0B14D00022C28E22C2CA2253C4F7229F
:03000B00020B3EA7
:100B3600C2AF80FE1215CD32120B3A85D00B75D09E
:100B460008AAE0C28CE58A241FF58AE58C34FCF5F8
:100B56008CD28CEC241CF8E6BC030274FFC395818E
:100B6600B4140040CB7904781316E608700BC2AFB4
:100B7600E630E1034418F6D2AF08D9EDEA8BD0226D
:100B8600E50CFF232414F80F0808BF04047F00783F
:100B960014E630E4F200E50CC39F5020050C741BEC
:100BA600250CF8E6FDA68108E6AE0CBE030274FF2E
:100BB600CDF8E86D60E008E6C0E080F6E50CD39F6E
:100BC6004027E50C241CF8E6AE0CBE030274FFFDBC
:100BD60018E6CDF8E5816D6006D0E0F61880F5E5FB
:100BE6000C241BC8F6150C80D3E50C232414F87FBF
:100BF60004C2AFE630E00310E20C7F0030E10730BC
:100C0600E3047F0854F4547CC6D2AF5480420722D2
:100C1600781BA68174036006FF0876FFDFFB7F045E
:0D0C2600E47813F608F608DFFA781476304B
:100C33009015B7740193C0E0E493C0E04389017554
:0D0C43008A18758CFCD28CD2AFD2A9220386
:0B127100900030EBF0A3EAF0A3E9F0DE
:10127C00E4FFEA494B6038900036E0FE900030E025
:10128C00FBA3E0FAA3E0F9EE120401900033E0FBBB
:10129C00A3E0FAA3E0F9C003C002C001900030E063
:1012AC00FBA3E0FAA3E0F990000112061880027F7C
:0112BC00FF32
:0112BD00220E
:0B13C400900086EBF0A3EAF0A3E9F034
:1013CF00E4FF900086E0FBA3E0FAA3E0F91203BB71
:1013DF00FEEFC39E50129000011205E88F827583B5
:0813EF0000ED1204130F80DA77
:0113F70022D3
:0B130700900033EBF0A3EAF0A3E9F044
:101312009000011205E88D827583001203D4FE90BD
:101322000037E0B50620900033E0FBA3E0FAA3E02B
:10133200F99000011205E8AE058E82758300E41271
:0813420004137F018002E4FFA7
:01134A002280
:101392004100820041008100410077004400780052
:0E13A20000000041007C0044007D00000000BF
:0615C700900081E0FF220C
:100F6F00E4900001F0FD7F03120EB8900002EFF045
:100F7F00900077E0146022146037146062240370CD
:100F8F006A900002E070649000781205B7000000CC
:100F9F00009000777401F08052900002E07047904B
:100FAF0000781205B7000000009000777402F080FF
:100FBF003A900002E0B401089000017401F080261D
:100FCF00900078120576E47B64FAF9F8D312055293
:100FDF0050199000017402F090007704F0800C908B
:100FEF000002E0B40105E4900077F0900001E0FF0B
:010FFF0022CF
:10116A00E4900000F0120F6F90007CE014602004FD
:10117A007045EFB4011290007D1205B7000000001F
:10118A0090007C7401F0802F900000EFF08028EF2F
:10119A00B401079000007403801790007D12057651
:1011AA00E47B19FAF9F8D3120552500B9000007437
:0C11BA0001F0E490007CF0900000E0FFE9
:0111C6002206
:101483001215D0900082E0FEC3EF9EC39414401067
:101493001215D0900082EFF012116A900081EFF0E4
:0114A3002226
:0100220022BB
:10156C007B02E4FD7F03120CD912148312002212A9
:04157C000B8680F565
:0413B000410089006F
:1012BE00ED7006900003F0800AEDB4010690000375
:1012CE007401F0EF14601314601914601F2403707E
:1012DE0027900003E0FB7D018019900003E0FB7D69
:1012EE00028010900003E0FB7D038007900003E076
:0812FE00FB7D047F0112108C3E
:0113060022C4
:1014F5001215D0900089E0FEC3EF9EC394644008A6
:091505001215D0900089EFF022CC
:0115D30022F5
:10002600E4FDFF1212BEE4FD7F011212BEE4FD7F65
:10003600021212BEE4FD7F031212BE1214F512154F
:06004600D3120B8680F5C9
:10150E005644443D256C75206D562C204261743D29
:09151E00256C75206D560D0A00C4
:0813B4004100680041007500D2
:10145E001215D0900068E0FEC3EF9EC394144014A2
:10146E001215D0900068EFF0900076E0D394004013
:05147E0003E014F02260
:100DED009000041205B7000000001215C7900075A1
:100DFD00EFF0A3E06003020EB77419F07F0812063E
:100E0D00F69000041205ABE47FFF7E0FFDFC900011
:100E1D0069E0F8A3E0F9A3E0FAA3E0FB1204359032
:100E2D000004E0F8A3E0F9A3E0FAA3E0FB1204C08C
:100E3D0090006D1205AB7F051206F69000041205A9
:100E4D00AB900004E0FCA3E0FDA3E0FEA3E0FF9067
:100E5D00006DE0F8A3E0F9A3E0FAA3E0FB1204357E
:100E6D00E47B0DFAF9F8120435E47BFF7A0FF9F8FB
:100E7D001204C09000711205AB7BFF7A15790E90AC
:100E8D00006DE0FCA3E0FDA3E0FEA3E0FF90000BEE
:100E9D001205AB900071E0FCA3E0FDA3E0FEA3E022
:0A0EAD00FF90000F1205AB1200C108
:010EB7002218
:101580001209229000691205AB12145E120DED12C1
:041590000B8680F551
:0713BC000112004100540082
:0315CD00051222E2
:0315D000AF122235
:07004C007B017A00796422B8
:0915AE007B017D03E4FF02108CB7
:0815BF00E4FB7D03FF02108C28
:101556001215D0900054E0FEC3EF9EC3946440057C
:061566001215D0EFF02287
:10142B0012000E12004C900030EBF0A3EAF0A3E98F
:10143B00F09000377401F0E4FD121307900030E0D8
:10144B00FBA3E0FAA3E0F99000377404F0E4FD127B
:02145B00130775
:01145D00226C
:10110A007F007E007D007C001212231215947B0161
:10111A007D03E4FF120CD97F007EC27D017C0012A0
:10112A00134B1213F812000E7F01120C507F021299
:10113A000C507F03120C501215AE9000337401F05C
:10114A00A37400F0A37455F0A3740FF07B017A0026
:10115A00796412127112155612142B120B8680F52D
:100C5000EFD3940340037FFF2274142F2FF8E62074
:100C6000E5F4C2AFE64430F6D2AFAE0CEEC39F500F
:100C7000210E741B2EF8E6F908E618BE030274FF75
:100C8000FDED69600909E71919F7090980F31616DE
:100C900080DAEED39F400405810581EED39F402288
:100CA000741B2EF808E6F9EEB50C02A981180606A9
:100CB000E6FDED6960091919E70909F71980F31EC6
:100CC00080D9EF241BF8E604F8EF2F049015B793B2
:090CD000F608EF2F93F67F0022D5
:03000000021000EB
:0C100000787FE4F6D8FD758121021047CE
:1003BB00BB010689828A83E0225002E722BBFE0240
:0903CB00E32289828A83E4932273
:1003D400BB010CE58229F582E5833AF583E02250DE
:1003E40006E92582F8E622BBFE06E92582F8E22228
:0D03F400E58229F582E5833AF583E4932242
:10040100BB010689828A83F0225002F722BBFE01DA
:02041100F322D4
:10041300F8BB010DE58229F582E5833AF583E8F01F
:10042300225006E92582C8F622BBFE05E92582C8CB
:02043300F222B3
:10043500E88FF0A4CC8BF0A42CFCE98EF0A42CFC66
:100445008AF0EDA42CFCEA8EF0A4CDA8F08BF0A4E4
:100455002DCC3825F0FDE98FF0A42CCD35F0FCEB43
:100465008EF0A4FEA9F0EB8FF0A4CFC5F02ECD3908
:0F047500FEE43CFCEAA42DCE35F0FDE43CFC2275
:1004840075F008758200EF2FFFEE33FECD33CDCC2F
:1004940033CCC58233C5829BED9AEC99E5829840B2
:1004A4000CF582EE9BFEED9AFDEC99FC0FD5F0D68F
:1004B400E4CEFBE4CDFAE4CCF9A88222B800C1B9B9
:1004C4000059BA002DEC8BF084CFCECDFCE5F0CBF7
:1004D400F97818EF2FFFEE33FEED33FDEC33FCEB30
:1004E40033FB10D703994004EB99FB0FD8E5E4F9EB
:1004F400FA227818EF2FFFEE33FEED33FDEC33FCD8
:10050400C933C910D7059BE99A4007EC9BFCE99ACB
:10051400F90FD8E0E4C9FAE4CCFB2275F010EF2F10
:10052400FFEE33FEED33FDCC33CCC833C810D70710
:100534009BEC9AE899400AED9BFDEC9AFCE899F84B
:0E0544000FD5F0DAE4CDFBE4CCFAE4C8F922DE
:10055200EB9FF5F0EA9E42F0E99D42F0E89C45F0FF
:010562002276
:10056300E8600FEFC333FFEE33FEED33FDEC33FCF6
:03057300D8F1229A
:100576007401FF3395E0FEFDFCA3A3A3E02FFFF07B
:10058600E582158270021583E03EFEF0E582158253
:1005960070021583E03DFDF0E58215827002158339
:0505A600E03CFCF02226
:0C05AB00ECF0A3EDF0A3EEF0A3EFF022C3
:1005B700A8828583F0D083D0821205CE1205CE1291
:1005C70005CE1205CEE473E493A3C583C5F0C583B6
:1005D700C8C582C8F0A3C583C5F0C583C8C582C88E
:0105E70022F1
:1005E800BB010DE58229F582E5833AF58302068988
:1005F8005007E92582F8020677BBFE07E92582F84D
:100608000206B2E58229F582E5833AF5830206C43B
:10061800BB0120E58229F582E5833AF583D0F0D045
:10062800E0F8D0E0F9D0E0FAD0E0FBE8C0E0C0F0B4
:100638000206A95018E92582F8D083D082D0E0F9C3
:10064800D0E0FAD0E0FBC082C083020680BBFE186F
:10065800E92582F8D083D082D0E0F9D0E0FAD0E062
:09066800FBC082C0830206BB2224
:060671008A838982E47314
:10005600E50D240BF582E43400F583E0050D2290CE
:10006600000830070390000BE475F00112069202B7
:1000760003BB2000E97F2ED2008018EF540F249096
:10008600D43440D4FF30040BEF24BFB41A0050031D
:100096002461FFE50E6002150E0511E511700205DB
:1000A6001030070E900008E475F001120692EF0278
:1000B60004010200037403D2078003E4C207F50DAE
:1000C6009000081206A9E4F50EF510F511E50E608C
:1000D600077F2012009980F5750FFFC201C200C28A
:1000E60002C203C205C206C208120065FF700D30C7
:1000F60007057F001200AAAF11AE1022B4255FC219
:10010600D5C204120065FF24D0B40A00501A75F057
:100116000A780E30D50508B6FF0106C6A426F620D5
:10012600D5047002D20380D924CFB41A00EF50044C
:10013600C2E5D2040202ABD20180C6D20080C0D290
:100146000280BCD2D580BAD20580B47F2012009935
:100156002002077401B50E0040F1120056FF12008E
:10016600990200D3D208D2068095120056FB1200DF
:1001760056FA120056F94A4B7006797C7A037BFFD1
:1001860020022EE50E602A7E008E82758300120301
:10019600D460060EEE650F70F0C2D5EBC0E0EAC083
:1001A600E0E9C0E0EE1202F2D0E0F9D0E0FAD0E0E9
:1001B600FB1203BBFF60AAEBC0E0EAC0E0E9C0E0C7
:1001C600120099D0E02401F9D0E03400FAD0E0FB27
:1001D600E50F0460DCD50FD980877BFF7A0279EEC4
:1001E600D202809C791080027908C206C208800873
:1001F600D2D5790A8004790AC2D5E50F047002F5D2
:100206000FE4FAFDFEFF120056FC7B0820011312D4
:100216000056FD7B1030000A120056FE120056FFF3
:100226007B20EC3382D592D55013C3E43000069F71
:10023600FFE49EFEE42001039DFDE49CFCE4CBF874
:10024600C201EC700CCFCECDCCE824F8F870F38068
:1002560017C3EF33FFEE33FEED33FDEC33FCEB3328
:10026600FB994002FB0FD8E9EB300105F8D0E0C45A
:1002760048B201C0E00AEC4D4E4F78207B0070C2B8
:10028600EAB50F0040BCC0E01202F4D0F0D0E02086
:100296000104C4C0E0C4B201C0F0120082D0F0D59F
:1002A600F0EB0200D31206D001705301EA58014167
:1002B6004C013D4201EE4F01F64401F64901564319
:0802C60001FC5501E04601E0D6
:1002CE004501E047039C5001452D01492E016C2B41
:1002DE00014D23016A2003852A01054800000164AF
:1002EE003F3F3F00790AA2D5200314300509B9100B
:1002FE00020404B9080104A2D5200602500104200C
:10030E0002689202B50E005034C0E07F203003190F
:10031E007F30A20272067205500F12034BC202C248
:10032E0006C205C2087F30800F300503E9C0E01217
:10033E000099300503D0E0F9D0E0B50ECC300517AA
:10034E007F30B9100C1200997F583004077F7880E7
:10035E0003B908031200993002057F2D0200997F20
:10036E00202008F87F2B2006F322920280CF286EE1
:10037E00756C6C2900D2011200563001F8C201785A
:10038E000E30D50108F60201052D504349581200D2
:10039E00562403B405004001E49003979312008A9B
:0D03AE00743A12008AD203750E040201EAAF
:10100C00020C16E493A3F8E493A34003F68001F2D8
:10101C0008DFF48029E493A3F85407240CC8C333E5
:10102C00C4540F4420C8834004F456800146F6DFB4
:10103C00E4800B010204081020408090138CE47EA5
:10104C00019360BCA3FF543F30E509541FFEE493A9
:10105C00A360010ECF54C025E060A840B8E493A370
:10106C00FAE493A3F8E493A3C8C582C8CAC583CA9B
:10107C00F0A3C8C582C8CAC583CADFE9DEE780BE53
:0113C3000029
:09067700E6FB08E6FA08E6F922A8
:09068000EBF608EAF608E9F6229F
:09068900E0FBA3E0FAA3E0F92272
:10069200F8E0FBA3A3E0F925F0F0E58215827002F1
:0706A2001583E0FA38F02295
:0906A900EBF0A3EAF0A3E9F02252
:0906B200E2FB08E2FA08E2F92279
:0906BB00EBF208EAF208E9F22270
:0C06C400E493FB740193FA740293F92292
:1006D000D083D082F8E4937012740193700DA3A3B9
:1006E00093F8740193F5828883E4737402936860CD
:0606F000EFA3A3A380DFCD
:00000001FF
