:020E98000D103B
:020E9A000E6FD9
:020E9C000DD374
:020E9E000E8BB9
:020EA0000EBC86
:03000B0002077079
:10076800C2AF80FE120EB33212076C85D00B75D063
:1007780008AAE0C28CE58A241FF58AE58C34FCF5CA
:100788008CD28CEC2446F8E6BC040274FFC3958135
:10079800B4140040CB7905783B16E608700BC2AF5D
:1007A800E630E1034418F6D2AF08D9EDEA8BD03031
:1007B800090122D50DFCC0E0C0D0C0F0C083C082C2
:1007C800C000C001C002C003C004C005C006C00705
:1007D800E50C23243CF87440C2AF46F6D2AFD209E8
:1007E800E50CFF23243CF80F0808BF05047F0078B8
:1007F8003CE630E4F200E50CC39F5020050C74453C
:10080800250CF8E6FDA68108E6AE0CBE040274FFCE
:10081800CDF8E86D60E008E6C0E080F6E50CD39F0F
:100828004027E50C2446F8E6AE0CBE040274FFFD32
:1008380018E6CDF8E5816D6006D0E0F61880F5E59C
:100848000C2445C8F6150C80D3750D05E50C23243A
:100858003CF87F04C2AFE610E61E30E00310E20C5D
:050868007F0030E107F4
:10086D0030E3047F0854F4547CC6D2AF5480420761
:10087D00C20922F6D2AFD007D006D005D004D003DE
:10088D00D002D001D000D082D083D0F0D0D0D0E033
:10089D00C209227845A68174046006FF0876FFDF41
:1008AD00FB7F05E4783BF608F608DFFA783C7630F6
:1008BD00900E98740193C0E0E493C0E0750D05436C
:1008CD008901758A18758CFCD28CD2AFD2A92204FD
:080C38008F1A8E198D188C171C
:100C4000E4F51EF51DF51CF51B9000081202C1E528
:100C50001A2401FFE43519FEE43518FDE43517FCCC
:100C6000D31202225007E4FFFEFDFC8011E51A2496
:100C700001FFE43519FEE43518FDE43517FC8F1E3D
:060C80008E1D8D1C8C1B73
:010C8600224B
:070EAC0090000C120253221A
:060A31008B0E8A0F8910F4
:100A3700E4F511F512F516F515F514F51390000CFC
:100A4700120253E4FBFAF9F8C31202225076AB0EF6
:100A5700AA0FA9109000041202538F168E158D1439
:100A67008C13900004120253120C38AB0EAA0FA974
:100A77001090000412029D90000C120253EF24FF05
:100A8700FFEE34FFFEED34FFFDEC34FFFC90000C6D
:100A970012029D9000101202F1C003C002C001E4CF
:100AA7007F02FEFDFCAB16AA15A914A813120105B7
:100AB700D001D002D0038F828E831200A0F5128559
:0D0AC700F0118005E4F511F512AE11AF122B
:010AD40022FF
:100B61008C398D3A8B368A378938900008120253B6
:100B710090000C1202C1C3120222505EAB36AA379A
:100B8100A938120233E47B02FAF9F8120105AB36F7
:100B9100AA37A9389000101202F18F828E83E539AD
:100BA100853AF01200D8AB36AA37A93812023312AF
:100BB1000C38AB36AA37A938120283AB36AA37A94B
:100BC1003890000C120253EF2401FFE43EFEE43D95
:0B0BD100FDE43CFC90000C12029D2291
:04000E0041000500A8
:100D4A0012002690000112007EEDF412006C900051
:100D5A000112003FFF120026FE6F6001229000047C
:100D6A0012003F6E5E90000212007E900004EE12A6
:030D7A00007E22D6
:10096600E4900008F0A3F0120EB6900005E0FEC376
:10097600EF9EC394145003020A30120EB69000057F
:10098600EFF0A2B0E433900009F0900008E0FFA376
:10099600E0FEEF4EFF900008F0E4A3F0E025E04F04
:1009A600FF900008F0E4A3F0E025E025E04FFF907B
:1009B6000008F0E4A3F0E033333354F84FFF90001F
:1009C60008F0E4A3F0E0C454F04FFF900008F0E410
:1009D600A3F0E0C43354E04FFF900008F0E4A3F026
:1009E600E0C4333354C04FFF900008F0E4A3F0E0B6
:1009F600FEC433333354804FFF900008F0FD7B0173
:100A06007A007900120D4A900002E030E01C7D0267
:100A1600E4FF120BDCE4FD7F01120BDCE4FD7F0238
:0A0A2600120BDCE4FD7F03120BDC71
:010A300022A3
:0100220022BB
:0E0E6F0043AC0153ADFE12096612002280F85A
:08001200410006004100070057
:100BDC00EF14601E14602F1460402403704DED70F0
:100BEC0003C29122BD0103D29122ED6402703CB28A
:100BFC009122ED7003C29222BD0103D29222ED64C8
:100C0C00027028B29222ED7003C29322BD0103D26E
:100C1C009322ED64027014B29322ED7003C29422FD
:0C0C2C00BD0103D29422BD0202B294224A
:100DB000120EB6900006E0FEC3EF9EC3946440128C
:100DC000120EB6900006EFF0A3E0D394004003E0CB
:030DD00014F022FA
:0A0EA200900007E07003740AF022CC
:100DD30053B3FD43B40253B3FB43B40453B3F743D8
:100DE300B40853B3EF43B410120DB0120EA280F83F
:100DF3005B5359535D0053797374656D20696E6954
:0C0E0300742066696E6973682E0D0A0089
:07001A00011F0041000A0074
:030EB300051F22F6
:030EB600AF1F2249
:100E2B0075C7AA75C755A2AF920AC2AF75C7AA7587
:0A0E3B00C755439F80A20A92AF2220
:100D7D0075C7AA75C75543AA07A2AF920AC2AF7528
:100D8D00C7AA75C75543AA80A20A92AFA2AF920A0D
:100D9D00C2AF75C7AA75C75543AA40A20A92AF4301
:030DAD009B102276
:100E5B00A2AF920AC2AF75C7AA75C75543AA40A2E3
:040E6B000A92AF2216
:0E0E7D00E4F5B1F5B2F5B3F5B4F5ACF5AD2280
:100C8700C2AFA2AF920AC2AF75C7AA75C75543973D
:100C970020A20A92AFE59630E5FBA2AF920AC2AF57
:100CA70075C7AA75C7555396FBA20A92AFA2AF9212
:100CB7000AC2AF75C7AA75C7555396FDA20A92AF68
:080CC700E59720E0FBD2AF220B
:100E4500120EB690000AE0FEC3EF9EC394644005FF
:060E5500120EB6EFF022C0
:030EB900020E5BCB
:100D1000120C87120E7D120D7D120E5B7F011208E0
:100D2000DD7F021208DD7F031208DD7F041208DD7B
:100D30007BFF7A0D79F312046E7BFF7A0D79F9123D
:0A0D4000046E120E45120EB980F881
:080003003099FDC2998F99228A
:100CCF00C2AF53B1BF53B2BF53B17F53B27F759809
:100CDF0050438920438780438E1053C4DFAB07AA4C
:100CEF0006A905A8047F407E427D0F7C001201906B
:100CFF00EF04F404F58DC2ABD28ED299D2ACD2AF41
:010D0F0022C1
:03002300020E0FBB
:090E0F00C0E0C0D075D000C0079E
:0C0E1800309809C298AF99BFAA02B292AC
:070E2400D007D0D0D0E0326E
:0D0E8B007F007EC27D017C00120CCF80FE36
:020EBC0080FEB6
:1008DD00EFD3940440037FFF22743C2F2FF8E620C2
:1008ED00E5F4C2AFE64430F6D2AFAE0CEEC39F5086
:1008FD00210E74452EF8E6F908E618BE040274FFC1
:10090D00FDED69600909E71919F7090980F3161654
:10091D0080DAEED39F400405810581EED39F4022FE
:10092D0074452EF808E6F9EEB50C02A981180606F5
:10093D00E6FDED6960091919E70909F71980F31E3C
:10094D0080D9EF2445F8E604F8EF2F04900E989324
:09095D00F608EF2F93F67F00224B
:03000000020AD51C
:0C0AD500787FE4F6D8FD758149020B1C07
:10002600BB010689828A83E0225002E722BBFE02D8
:09003600E32289828A83E493220B
:10003F00BB010CE58229F582E5833AF583E0225076
:10004F0006E92582F8E622BBFE06E92582F8E222C0
:0D005F00E58229F582E5833AF583E49322DA
:10006C00BB010689828A83F0225002F722BBFE0173
:02007C00F3226D
:10007E00F8BB010DE58229F582E5833AF583E8F0B8
:10008E00225006E92582C8F622BBFE05E92582C864
:02009E00F2224C
:1000A000BB0110E58229F582E5833AF583E0F5F09E
:1000B000A3E0225009E92582F886F008E622BBFE7B
:1000C0000AE92582F8E2F5F008E222E5832AF583C1
:0800D000E993F5F0A3E9932286
:1000D800F8BB0111E58229F582E5833AF583E8F05A
:1000E800E5F0A3F0225009E92582C8F608A6F02217
:0D00F800BBFE09E92582C8F2E5F008F222FE
:10010500E88FF0A4CC8BF0A42CFCE98EF0A42CFC99
:100115008AF0EDA42CFCEA8EF0A4CDA8F08BF0A417
:100125002DCC3825F0FDE98FF0A42CCD35F0FCEB76
:100135008EF0A4FEA9F0EB8FF0A4CFC5F02ECD393B
:0F014500FEE43CFCEAA42DCE35F0FDE43CFC22A8
:1001540075F008758200EF2FFFEE33FECD33CDCC62
:1001640033CCC58233C5829BED9AEC99E5829840E5
:100174000CF582EE9BFEED9AFDEC99FC0FD5F0D6C2
:10018400E4CEFBE4CDFAE4CCF9A88222B800C1B9EC
:100194000059BA002DEC8BF084CFCECDFCE5F0CB2A
:1001A400F97818EF2FFFEE33FEED33FDEC33FCEB63
:1001B40033FB10D703994004EB99FB0FD8E5E4F91E
:1001C400FA227818EF2FFFEE33FEED33FDEC33FC0B
:1001D400C933C910D7059BE99A4007EC9BFCE99AFF
:1001E400F90FD8E0E4C9FAE4CCFB2275F010EF2F44
:1001F400FFEE33FEED33FDCC33CCC833C810D70744
:100204009BEC9AE899400AED9BFDEC9AFCE899F87E
:0E0214000FD5F0DAE4CDFBE4CCFAE4C8F92211
:10022200EB9FF5F0EA9E42F0E99D42F0E89C45F032
:0102320022A9
:10023300BB010789828A8302032D5005E9F8020373
:1002430021BBFE05E9F802033989828A830203454B
:10025300BB010DE58229F582E5833AF58302032D7F
:100263005007E92582F8020321BBFE07E92582F83E
:10027300020339E58229F582E5833AF583020345D2
:10028300BB010789828A830203975005E9F80203B9
:0A0293008BBBFE05E9F80203A3226D
:10029D00BB010DE58229F582E5833AF583020397CB
:1002AD005007E92582F802038BBBFE07E92582F88A
:0402BD000203A32273
:1002C100BB010DE58229F582E5833AF583020362DC
:1002D1005007E92582F8020355BBFE07E92582F89C
:1002E10002036EE58229F582E5833AF58302037BF9
:1002F100BB010DE58229F582E5833AF5830203C846
:100301005007E92582F80203AFBBFE07E92582F811
:100311000203D1E58229F582E5833AF5830203DA06
:10040C00E5312425F8E605312278223007027825DB
:10041C00E475F0011203B80200262000EB7F2ED207
:10042C00008018EF540F2490D43440D4FF30040BC8
:10043C00EF24BFB41A0050032461FFE532600215AB
:10044C00320535E5357002053430070D7822E47538
:10045C00F0011203B8EF02006C0200037403D20720
:10046C008003E4C207F5318B228A238924E4F53218
:10047C00F534F535E53260077F2012044780F575B9
:10048C0033FFC201C200C202C203C205C206C208C7
:10049C00120415FF700D3007057F00120458AF359C
:1004AC00AE3422B4255FC2D5C204120415FF24D089
:1004BC00B40A00501A75F00A783230D50508B6FF28
:1004CC000106C6A426F620D5047002D20380D924D6
:1004DC00CFB41A00EF5004C2E5D204020658D20180
:1004EC0080C6D20080C0D20280BCD2D580BAD205E0
:1004FC0080B47F201204472002077401B5320040FB
:10050C00F112040CFF120447020480D208D20680B8
:10051C009512040CFB12040CFA12040CF94A4B70E1
:10052C000679297A077BFF20022EE532602A7E00AD
:10053C008E8275830012003F60060EEE653370F0FC
:10054C00C2D5EBC0E0EAC0E0E9C0E0EE12069FD0F5
:10055C00E0F9D0E0FAD0E0FB120026FF60AAEBC075
:10056C00E0EAC0E0E9C0E0120447D0E02401F9D091
:10057C00E03400FAD0E0FBE5330460DCD533D980FD
:10058C00877BFF7A06799BD202809C791080027956
:10059C0008C206C2088008D2D5790A8004790AC23A
:1005AC00D5E533047002F533E4FAFDFEFF12040CBA
:1005BC00FC7B0820011312040CFD7B1030000A1286
:1005CC00040CFE12040CFF7B20EC3382D592D55028
:1005DC0013C3E43000069FFFE49EFEE42001039D5C
:1005EC00FDE49CFCE4CBF8C201EC700CCFCECDCC7E
:1005FC00E824F8F870F38017C3EF33FFEE33FEED09
:10060C0033FDEC33FCEB33FB994002FB0FD8E9EBE9
:10061C00300105F8D0E0C448B201C0E00AEC4D4E00
:10062C004F78207B0070C2EAB5330040BCC0E012AA
:10063C0006A1D0F0D0E0200104C4C0E0C4B201C0D7
:10064C00F0120430D0F0D5F0EB0204801203E60572
:10065C001D5305975804EE4C04EA42059B4F05A325
:0F066C004405A34905034305A955058D46058D92
:10067B0045058D4707495004F22D04F62E05192B1D
:10068B0004FA2305172007322A04B248000005118B
:10069B003F3F3F00790AA2D5200314300509B9105A
:1006AB00020404B9080104A2D5200602500104205B
:1006BB0002689202B532005034C0E07F203003193B
:1006CB007F30A20272067205500F1206F8C202C2E8
:1006DB0006C205C2087F30800F300503E9C0E01267
:1006EB000447300503D0E0F9D0E0B532CC30051724
:1006FB007F30B9100C1204477F583004077F788085
:10070B0003B908031204473002057F2D0204477F0B
:10071B00202008F87F2B2006F322920280CF286E30
:10072B00756C6C2900D20112040C3001F8C20178EF
:10073B003230D50108F60204B22D50434958120449
:10074B000C2403B405004001E490074493120438D1
:0D075B00743A120438D20375320402059777
:100AE1000208A0E493A3F8E493A34003F68001F283
:100AF10008DFF48029E493A3F85407240CC8C33316
:100B0100C4540F4420C8834004F456800146F6DFE4
:100B1100E4800B010204081020408090000EE47E66
:100B2100019360BCA3FF543F30E509541FFEE493D9
:100B3100A360010ECF54C025E060A840B8E493A3A0
:100B4100FAE493A3F8E493A3C8C582C8CAC583CACB
:100B5100F0A3C8C582C8CAC583CADFE9DEE780BE83
:0100210000DE
:0C032100E6FC08E6FD08E6FE08E6FF2208
:0C032D00E0FCA3E0FDA3E0FEA3E0FF2243
:0C033900E2FC08E2FD08E2FE08E2FF2200
:10034500E493FC740193FD740293FE740393FF22FE
:0D035500E6FB08E6F908E6FA08E6CBF82218
:0C036200E0F8A3E0F9A3E0FAA3E0FB221E
:0D036E00E2FB08E2F908E2FA08E2CBF8220F
:10037B00E493F8740193F9740293FA740393FB22D8
:0C038B00ECF608EDF608EEF608EFF6229E
:0C039700ECF0A3EDF0A3EEF0A3EFF022D9
:0C03A300ECF208EDF208EEF208EFF22296
:0903AF00E6FB08E6FA08E6F92273
:1003B800FAE6FB0808E6F925F0F618E6CA3AF62246
:0903C800E0FBA3E0FAA3E0F92236
:0903D100E2FB08E2FA08E2F9225D
:0C03DA00E493FB740193FA740293F9227F
:1003E600D083D082F8E4937012740193700DA3A3A6
:1003F60093F8740193F5828883E4737402936860BA
:06040600EFA3A3A380DFB9
:00000001FF
